:100000000C9462000C947F000C947F000C947F0091
:100010000C947F000C947F000C947F000C947F0064
:100020000C947F000C947F000C947F000C947F0054
:100030000C947F000C947F000C947F000C947F0044
:100040000C9490010C947F000C947F000C947F0022
:100050000C947F000C947F000C947F000C947F0024
:100060000C947F000C947F00000000002400270007
:100070002A000000000023002600290000000000E4
:10008000250028002B0004040404040404040202D4
:100090000202020203030303030301020408102007
:1000A0004080010204081020010204081020000012
:1000B0000008000201000003040700000000000027
:1000C0000000420211241FBECFEFD8E0DEBFCDBF3B
:1000D00021E0A0E0B1E001C01D92A731B207E1F735
:1000E00010E0C2E6D0E004C02197FE010E945A024F
:1000F000C136D107C9F70E94DA010C9460020C9452
:100100000000833081F028F4813099F08230A1F032
:1001100008958730A9F08830B9F08430D1F4809107
:1001200080008F7D03C0809180008F778093800056
:10013000089584B58F7702C084B58F7D84BD0895FE
:100140008091B0008F7703C08091B0008F7D809345
:10015000B00008951F93CF93DF93EBEBF0E0949101
:10016000E7EAF0E0D491E3E9F0E0C491CC23D9F0E0
:10017000182F992319F0892F0E948100EC2FF0E0AD
:10018000EE0FFF1FE458FF4FA591B4918FB7F8947D
:10019000111105C09C91ED2FE095E92302C0EC916F
:1001A000ED2BEC938FBFDF91CF911F910895CF93EB
:1001B000DF932091090130910A013327F901E255BB
:1001C000FF4F8491F901E656FF4FD491F901EA57A8
:1001D000FF4FC491CC2371F081110E948100EC2F5C
:1001E000F0E0EE0FFF1FEE58FF4FA591B491EC9198
:1001F000ED2391F480911501882309F452C0809178
:100200001601882319F01092160103C081E0809333
:100210000D011092150145C080911501811116C084
:1002200081E0809315012FB7F8948091050190919A
:100230000601A0910701B09108012FBF80930F0123
:1002400090931001A0931101B09312018FB7F8940D
:1002500040910501509106016091070170910801DC
:100260008FBF80910F0190911001A0911101B09169
:100270001201481B590B6A0B7B0B80911301909163
:100280001401A0E0B0E084179507A607B70748F46B
:1002900080911601811105C081E080931601809341
:1002A0000E01DF91CF910895CF93DF9390E0FC0191
:1002B000E656FF4F2491FC01EA57FF4F84918823B3
:1002C00061F190E0880F991FFC01E859FF4FC5913B
:1002D000D491FC01E458FF4FA591B491611109C07C
:1002E0009FB7F8948881209582238883EC912E23F0
:1002F0000BC0623061F49FB7F8943881822F8095EB
:1003000083238883EC912E2B2C939FBF06C08FB73D
:10031000F894E8812E2B28838FBFDF91CF91089529
:100320001F920F920FB60F9211242F933F938F932A
:100330009F93AF93BF938091050190910601A09187
:100340000701B09108013091040123E0230F2D37FC
:1003500020F40196A11DB11D05C026E8230F0296C9
:10036000A11DB11D20930401809305019093060106
:10037000A0930701B09308018091000190910101C1
:10038000A0910201B09103010196A11DB11D8093BE
:10039000000190930101A0930201B0930301BF916A
:1003A000AF919F918F913F912F910F900FBE0F9022
:1003B0001F901895789484B5826084BD84B581605F
:1003C00084BD85B5826085BD85B5816085BD809120
:1003D0006E00816080936E00109281008091810098
:1003E0008260809381008091810081608093810090
:1003F000809180008160809380008091B100846052
:100400008093B1008091B00081608093B0008091B2
:100410007A00846080937A0080917A008260809371
:100420007A0080917A00816080937A0080917A00CE
:10043000806880937A001092C10061E08DE00E9494
:10044000540160E087E00E945401C0E0D0E00E94C7
:10045000D70080910D01882329F010920D0181E0D1
:100460000E94AA000E94D70080910E01882329F0E3
:1004700010920E0180E00E94AA00209741F30E9492
:100480000000E5CFE9E0F1E01282138214821582C8
:1004900016821782108611861486158687E090E0F2
:1004A0009183808388EE93E09387828760E087E082
:1004B0000C945401EE0FFF1F0590F491E02D099468
:0404C000F894FFCFDE
:00000001FF
